:020000040800F2
:1000000048E80120C1010008E52C0008312C000857
:10001000E12C0008B5020008713300080000000060
:10002000000000000000000000000000ED2C0008AF
:10003000D102000800000000E92C0008F12C0008A3
:10004000DB010008DB010008DB010008DB01000820
:10005000DB010008DB010008DB010008DB01000810
:10006000D5020008DD020008DB010008DB01000802
:10007000DB010008DB010008DB010008DB010008F0
:10008000DB010008DB010008A9020008DB01000811
:10009000DB010008DB010008DB010008DB010008D0
:1000A000DB010008CD2D0008DB010008DB010008A2
:1000B000DB010008DB010008DB010008DB010008B0
:1000C000DB010008DB010008DB010008DB010008A0
:1000D000DB01000859330008DB0100086533000824
:1000E000DB010008DB010008DB010008DB01000880
:1000F000DB010008DB010008DB010008DB01000870
:10010000DB010008DB010008DB010008DB0100085F
:10011000DB010008DB010008D92D0008E52D0008EF
:10012000DB010008DB010008B9020008DB01000860
:10013000DB010008DB010008DB010008DB0100082F
:10014000DB010008DB010008DB010008DB0100081F
:10015000DB010008DB010008C5020008DB01000824
:10016000DB010008DB010008DB010008DB010008FF
:10017000DB010008DB010008DB01000800000000D3
:10018000DB010008DB010008DB010008DB010008DF
:10019000DB010008DB010008DB010008DB010008CF
:1001A000DB010008DB010008DB010008DFF80CD0F0
:1001B00000F068F8004800473547000848E801208B
:1001C0000648804706480047FEE7FEE7FEE7FEE7F1
:1001D000FEE7FEE7FEE7FEE7FEE7FEE7B92D0008D3
:1001E000AD0100082DE9F05F0546002092469B46D0
:1001F00088460646814640241BE02846414647463D
:10020000224600F02FF853465A46C01A914110D3A7
:1002100011461846224600F016F82D1A67EB010821
:100220004F4622460120002100F00DF817EB00098F
:100230004E41201EA4F10104DFDC484631462A4627
:100240004346BDE8F09F202A04DB203A00FA02F181
:10025000002070479140C2F1200320FA03F31943B4
:1002600090407047202A04DB203A21FA02F0002156
:10027000704721FA02F3D040C2F1200291400843B6
:1002800019467047064C074D06E0E06840F0010350
:1002900094E8070098471034AC42F6D3FFF78AFF82
:1002A0008C5D0008AC5D000840F28C00C2F20000DA
:1002B00000F0CEB8FEE7000040F2D400C2F2000029
:1002C00000F060BB40F23410C2F2000000F05ABBF4
:1002D00070470000042000F071BD0000082000F00D
:1002E0006DBD0000EFF3108072B600BFFEE70000A6
:1002F0007047000070B581B00022009290F83C2059
:10030000012A03D10221084601B070BD012280F804
:100310003C20D1F800E01FFA8EFCBEF10A0F4FEA34
:100320004C0212FA8EF204D303681E3A03F10C0455
:1003300002E0036803F1100407252668954026EAC9
:10034000050525608D6805FA02F225682A432260BA
:100350004A68062A05D802EB820203F13401053A05
:100360000BE002EB82040C2A87BF03F12C01A4F1FD
:10037000410203F13001A4F123021F240D689440CF
:100380000CFA02F225EA04040C600E6832430A609B
:1003900042F20431C4F20101A1F54172934205D049
:1003A000002180F83C10084601B070BDBEF1110F6D
:1003B00010D01222C1F2000296450BD0BEF1120FEE
:1003C000EED10A6822F400020A600A6842F4800250
:1003D0000A60E5E70A6822F480020A600A6842F4CB
:1003E00000020A601221C1F200018E45D8D140F20C
:1003F00008014DF68362C2F20001C4F21B320968A3
:10040000A1FB0212910C01EB8101490000910099BE
:1004100031B9C5E700990139009100990029BFD091
:1004200000990139009100990029B9D0009901394A
:10043000009100990029B3D00099013900910099E9
:100440000029E7D1ACE700007047000070470000CA
:10045000B0B5044600680268416892072CD511F0D7
:10046000200129D0216CC9065EBF216C41F40071C6
:100470002164816811F0405F17D1217EA9B9C16A5A
:1004800011F4700F02D0816849050ED4416821F043
:1004900020014160206C20F480702064206CC00436
:1004A0005EBF206C40F0010020642046FFF7CCFFC7
:1004B00020686FF01201016002684168520714D58C
:1004C00011F0800111D0216CC9065EBF216C41F48E
:1004D00000512164816811F4401F26D02046FFF7A7
:1004E00007FF20686FF00C01016002684168D207C5
:1004F00006D011F040011CBF01685FEAC17135D11F
:100500000268416892060FD511F0806108BFB0BD46
:10051000616C6FF0200541F00201616405602046C6
:10052000FFF794FF20680560B0BD816B11F4401F98
:1005300002D081684905D1D441684905CED481688B
:1005400011F0405FCAD1217E0029C7D1416821F056
:1005500080014160206C20F480502064206CC00534
:100560005EBF206C40F001002064B7E7206C40F4CF
:1005700080302064204600F0B3F820686FF001015D
:100580000160026841689206BED4CDE7002804BF2E
:100590000120704710B50446006CE0B3206CC00623
:1005A00043D4206C41F202110123C0F6007388434A
:1005B0000230206442F20430C4F20100016821F4E8
:1005C0004031016061680268114301602068416840
:1005D00021F4807141602169426842EA0121416051
:1005E000416821F040714160A16842681143416057
:1005F000816821F400618160E16882681143816053
:10060000A16A826822F0706299428260826811D188
:1006100022F0405117E0204600F064F8002084F8F2
:100620003C006064206CC006BBD50120002184F82A
:100630003C1010BD11438160816821F04051816000
:10064000E16A826811438160816821F00201816062
:10065000217E826842EA4101816094F8202041684D
:1006600082B141F400614EF200024160CFF6FF72A8
:10067000416821F460414160616A02EB41314268A6
:10068000114301E021F4006141600022C16ACFF60C
:10069000F07221F47001C162E16902EB0151C26A9A
:1006A0001143C162816821F40071816094F83010B7
:1006B000826842EA41218160816821F48061816021
:1006C0006169826842EA81210122816000206064C0
:1006D000216C62F301012164002184F83C1010BDFB
:1006E0007047000080B586B000210591CDE9031167
:1006F000CDE90111026842F20000C4F20100824219
:1007000001D006B080BD43F63002009100F5604094
:10071000C4F20202536943F480735361536903F4D2
:1007200080730093009B0091136843F001031360F2
:10073000126802F001020092009A039103210291D3
:100740000F21019101A900F045FB12200021002298
:1007500000F028FE122000F015FE06B080BD00005B
:100760007047000090F805C00223BCF1010F20D0B3
:1007700080B5037102F0100E40F6FE7303FA0EFC12
:1007800003681A6822EA0C0CD1E90021114301FA2E
:100790000EF141EA0C011960C0211A6801FA0EF14C
:1007A00022EA010119600023012143710171BDE8B2
:1007B00080401846704700007047000010B504469E
:1007C00000680168890444BF416B5FEA814118D425
:1007D0000168890046BF416B5FEA810110BD0421B9
:1007E0002171216941F0020121614FF00051416303
:1007F000016821F0805101602046BDE81040FFF7FC
:10080000AFBF04212171216941F0010121614FF441
:1008100000514163016821F4805101602046FFF7D7
:10082000CBFF2068D4E70000002804BF01207047F8
:1008300010B50446007920B900206071204600F010
:1008400007F802200121207100202061217110BDD4
:1008500080B586B000210591CDE90311CDE90111E4
:10086000026847F20040C4F20000824201D006B0A4
:1008700080BD43F63002009100F5C630C4F202029A
:10088000136943F000531361136903F0005300939D
:10089000009B0091136843F001031360126802F09B
:1008A00001020092009A03910321029130210191EB
:1008B00001A900F08FFA36200021002200F072FD1D
:1008C000362000F05FFD06B080BD000070B5866D7B
:1008D000044600F071FB054694F8350002282BD140
:1008E0002068016821F016010160416921F0800152
:1008F0004161216C09B9A16C19B1016821F00801AD
:100900000160016821F0010101600068C00705D1A4
:1009100019E000BF20680068C00714D000F04CFB4D
:10092000401B0528F6D920206065032084F8350097
:10093000002184F8341070BD802060650120002102
:1009400084F8341070BDE06D3F2101FA00F0B06012
:10095000012084F835000020002184F8341070BD97
:1009600090F83510022909D1052180F8351000686A
:10097000016821F00101016000207047802141657C
:1009800001207047F0B581B00446002048F2B5134D
:100990000821009040F20800C1F64E33C2F2000078
:1009A0000268D4E9166037688140A2FB032539420A
:1009B0000CD0226813685B0708D5136823F0040382
:1009C0001360B160616D41F00101616501218140F9
:1009D000394208D022685269120604D5B160616DAF
:1009E00041F00201616504218140394208D022684A
:1009F0001268920704D5B160616D41F00401616530
:100A000010218140394217D020680268120713D59F
:100A1000B16002680168520308D4C9055EBF01686D
:100A200021F008010160216C21B905E0080344D4DC
:100A3000216C09B120468847E16D202000FA01F2BF
:100A40003A4247D020680368DB0643D5B26094F889
:100A500035300268052B1ED122F016020260426971
:100A600022F080024261226C0AB9A26C1AB10268BB
:100A700022F0080202603F208840B060002084F825
:100A80003400012084F83500216D00295AD0204619
:100A9000884701B0F0BD0168520312D4C90515D4CE
:100AA000016821F010010160002084F83400012069
:100AB00084F83500E16B59B90CE0A16C0029B9D17B
:100AC000BAE7080302D4616C11B903E0E16B09B124
:100AD00020468847606DA8B3606DC0072ED0052101
:100AE000A80A84F8351021680A6822F001020A6019
:100AF000009A0132824200921AD80A68D20717D0AF
:100B0000009A01328242009212D80A68D2070FD0AE
:100B1000009A0132824200920AD80A68D20707D0AE
:100B2000009A01328242009202D80A68D207DFD1CD
:100B3000002084F83400012084F83500E16C09B10C
:100B40002046884701B0F0BD2DE9F041044600F091
:100B500033FA002C04BF0120BDE8F08105460020D7
:100B600084F83400022084F835002168086820F0F9
:100B7000010008600868C00704D110E02168086817
:100B8000C0070CD000F018FA401B0528F6D9032541
:100B900020230320636584F83550BDE8F08148F2D6
:100BA0003F020868D4E9013504F10C08CFF21002C5
:100BB00000EA020C98E8C101D4E9072E43EA0C03CD
:100BC0002B431843636A30433843042B40EA080040
:100BD00040EA020040EA0E021DD1D4E90BE042EAED
:100BE0000E02BEF1000F40EA020008604869A26AE6
:100BF00020F0030040EA020040F0040C11D0B8F5E8
:100C0000005F34D0B8F1000F42D1022A43D0012A4C
:100C100037D032B93FE00A60486920F0070040EA67
:100C2000030C6FF00F0040F2FF32C1F814C0002334
:100C3000012550FA81F091434AF6AB22CAF6AA2266
:100C40005F2888BF0431A165A0FB0202100945F6A8
:100C50008452C0F60002105C3F22E06502FA00F008
:100C600088600020636584F83550BDE8F081032A70
:100C7000D7D8012540230120DFE802F0020D02034E
:100C8000F0E7AEF1C070B0FA80F0400938B9C8E7BB
:100C9000032A04D3C5D1CEF300600028C1D00125BA
:100CA00040230120636584F83550BDE8F0810000E1
:100CB000B0B590F834C0BCF1010F47D04FF0010C33
:100CC000D0F858E080F834C090F835C0BCF1010F7E
:100CD00039D14FF0020C80F835C04FF0000CC0F84D
:100CE00054C0D0F800C08468DCF80050402C25F4D3
:100CF0008025CCF80050CCF804300B4608BF1346D2
:100D0000CCF8083008BF0A46CCF80C20C16D3F2251
:100D100002FA01F1CEF80810DCF8001041F01601DB
:100D2000CCF80010006C00281EBFDCF8000040F07A
:100D30000800CCF80000DCF8000040F00100CCF81E
:100D400000000020B0BD002180F834100220B0BDAA
:100D500008282AD0042818BF704780B541F6000043
:100D60004FF48051C4F2020000F018F944F210412F
:100D7000AE20C2F2010108704FF4007048804AF2C0
:100D80002000085C48704AF22200085C48718879AB
:100D9000CA7910440822087140F21000C2F2000023
:100DA0003030BDE8804001F0C7BE41F600004FF48E
:100DB0000061C4F2020000F0F1B8000043F61441F3
:100DC000C4F201010A68024214BF08607047FFF7CD
:100DD000BFBF00002DE9F04F82B042F200430A226B
:100DE0004FF0010E00264FF00008C4F202039842B3
:100DF00000F13E4308BF092203F1FF734FEAB32716
:100E0000092F4FF0000738BF4FEAB32200920A685B
:100E10000EFA08F912EA090F0FD100BF02360437A3
:100E200008F10108202E04BF02B0BDE8F08F0A6867
:100E30000EFA08F912EA090FF0D0D1F804C00CF04C
:100E4000030AAAF10102012A16D803228468CD6898
:100E50004FEA480BB2409443B5406FEA020E254377
:100E60008560CCF30015446805FA08F524EA090406
:100E7000254345600EE000BF0322BAF1030FB346DD
:100E800002FA06F26FEA020E04D1B3464FF0030AEB
:100E900021E000BFC2688C68BAF1020F02EA0E02BC
:100EA00004FA0BF442EA0402C26014D107F01C02F7
:100EB0000F2303FA02F56FF0030303EA5804044416
:100EC000236AAB430D6905FA02F21A432262D1F894
:100ED00004C00CF0030A03680AFA0BF21CF4403F4A
:100EE00003EA0E034FF0010E42EA0302026095D0BE
:100EF000002207F00C050F24019243F64402AC4097
:100F0000C4F202021346126842F480421A601A6860
:100F100043F60043C4F2010302F480429C4601926E
:100F200028F003021A44019B4FF60843CFF6FF73E3
:100F30009A46D358A343009C04FA05F52B4342F884
:100F40000A30DCF800204D6842EA0903EC0358BF80
:100F500022EA0903CCF80030AC03DCF8042042EAB2
:100F6000090358BF22EA0903CCF80430EC02DCF88C
:100F7000082042EA090358BF22EA090343F60C425B
:100F8000CCF80830AD02C4F201021446126842EAFD
:100F9000090358BF22EA090323603FE7426902EAD6
:100FA0000103914341EA034181617047002A08BF70
:100FB00009048161704700004EF24040C2F2010016
:100FC0000068704790F83D20202A1CBF022070471F
:100FD000242280F83D200268136823F00103136087
:100FE000536A23F010035362536A19435162116824
:100FF00041F001011160202180F83D100020704770
:1010000090F83D20202A1CBF02207047242289B27C
:1010100080F83D200268136823F0010313604FF647
:10102000F073D2F824C003EA0C031943516211682B
:1010300041F001011160202180F83D10002070472F
:10104000B0B5A8B3044690F83D0028B9002084F854
:101050003C00204600F0C2F8242084F83D002068BF
:10106000016821F001010160016841F40041016063
:10107000016821F40041016000F0C0FA48F28041AB
:1010800040F600120023C0F21E01C0F23D02884269
:101090004FF0000138BF0121904248F2A16238BFF1
:1010A00001236568C0F20102954238BF0B460BB1BF
:1010B0000120B0BD4DF68361C4F21B31A0FB0112CB
:1010C00021684B6823F03F0343EA92434B60930C43
:1010D0000A6A22F03F0C48F2A062C0F20102954277
:1010E00013D85A1C01384CF6FF7342EA0C020A620C
:1010F0006A00B0FBF2F001306FF31F30042898BF94
:101100000420CA6922EA030C3FE04FF49672A0F172
:10111000010E5A4344F6D353C1F26203A2FB0323E8
:10112000012202EB93124CF6FF7342EA0C020A62B0
:10113000CA6922EA030CA3689BB119200422684300
:10114000BEFBF0F0013062F31F30000512D09BB1FE
:10115000192004226843BEFBF0F0013062F31F3017
:1011600011E005EB4500BEFBF0F001306FF31F30DE
:101170000005ECD1012008E005EB4500BEFBF0F0D6
:1011800001306FF31F3040F4004040EA0C00C861AA
:101190000868D4E9072320F0C000104348F2FF326A
:1011A0001843086088689043D4E903231843104328
:1011B0008860C868D4E9052320F0FF001043184375
:1011C000C860086840F00100086000202021206409
:1011D00084F83D10206384F83E00B0BDB0B586B001
:1011E000002445F600010594CDE90344CDE901440E
:1011F000C4F200010068884231D045F20041C4F2D7
:101200000001884254D143F63005002401A900941E
:10121000C4F20205286840F002002860286800F047
:10122000020000900098042005900320CDE90340BF
:10123000122002904FF4C070019040F20040C4F2BE
:101240000200FFF7C7FD0094286940F400102861F0
:10125000286900F400100090009806B0B0BD43F675
:10126000300500941221C4F20205286840F02000E5
:101270002860286800F02000009000980420059065
:101280000320CDE90340CDE9010140F2004001A96E
:10129000C4F2020000F58050FFF79CFD009428691D
:1012A00040F480002861286900F4800000900098D4
:1012B00006B0B0BD40F200004EF24041C2F2000064
:1012C000C2F2010100780A6810440860704700000B
:1012D00080B543F60040C4F20200016841F4007199
:1012E0000160016841F480610160016841F480712E
:1012F0000160032000F084F80F2000F005F800F0F2
:1013000025F8002080BD000070B540F200060446BC
:101310004FF47A71C2F200063078B1FBF0F040F27F
:101320000801C2F200010968B1FBF0F000F034FCE2
:1013300001250F2C08D838B94FF0FF302146002284
:10134000002500F02FF87460284670BD82B043F687
:10135000400100200190C4F202014A6842F4804238
:101360004A604A6802F480420192019A009008683B
:1013700040F080500860086800F0805000900098AD
:1013800002B070470028B8BF704700F01F0101226B
:10139000400902FA01F14EF20012CEF2000242F8C8
:1013A0002010704710B500F00F034EF60C5E00F1F0
:1013B000604CB0F1FF3FA3F10403CEF2000E734482
:1013C00003F10C04C8BF0CF56444DEF800004FF0D4
:1013D000FF3CC0F30220C31E80F0070038BF00238B
:1013E000042828BF04200CFA00F021EA00000CFABF
:1013F00003F1984022EA010108430001207010BD6A
:101400004EF60C514FF6FF03CEF200010A681A4067
:1014100060F30A2242F0806040F0FD70086070477F
:1014200070B582B00020402647F20405019043F6D3
:101430004000C4F20E26C4F20005C4F202000168A6
:1014400041F080510160006800F0805001900198E7
:1014500001203060FFF7B0FD044600BF2868C003DC
:1014600006D4FFF7A9FD001BB0F57A7FF6D90EE090
:1014700001207060FFF7A0FD044600BF28688003CC
:1014800008D4FFF799FD001BB0F57A7FF6D9032049
:1014900002B070BD002002B070BD00002DE9F04127
:1014A000002800F0A88043F6080804460D46C4F260
:1014B0000208D8F8F80300F00F00884208D288F834
:1014C000F853D8F8F80300F00F00A84240F09380DA
:1014D0002068810717D5410742BFD8F8001041F4B2
:1014E000E051C8F80010010742BFD8F8001041F4DD
:1014F0006041C8F80010D8F80010A26821F0F0018F
:101500001143C8F80010C00736D06068811E022958
:1015100007D258F8081C89015CBF0120BDE8F081A2
:101520000DE0012807D158F8081C89035CBF012091
:10153000BDE8F08103E058F8081C89075BD5D8F8AE
:10154000001021F003010843C8F80000FFF734FD44
:10155000064641F2883707E0FFF72EFD801BB842B0
:1015600084BF0320BDE8F081D8F80000616800F076
:101570000C00B0EB810FEFD1D8F8F80300F00F00AA
:10158000A84207D988F8F853D8F8F80300F00F00FC
:10159000A84230D12068410707D5D8F80010E2688A
:1015A00021F4E0511143C8F80010000708D5D8F81D
:1015B0000000216920F4604040EAC100C8F8000042
:1015C00000F044F8D8F8001045F66C52C0F600025E
:1015D000C1F30311515CC84040F20801C2F200019E
:1015E000086040F20400C2F200000068FFF78CFEC1
:1015F0000020BDE8F0810120BDE8F08140F2080044
:1016000043F6080145F67C52C2F20000C4F2020122
:10161000C0F6000200680968C1F38221515CC8402D
:101620007047000040F2080043F6080145F67C527E
:10163000C2F20000C4F20201C0F6000200680968AC
:10164000C1F34231515CC8407047000010B543F609
:101650000404C4F20204606800F00C0008280AD0F8
:10166000042819BF42F20040C0F2F40041F60030F5
:10167000C0F2B70010BD226820680023400202F0CB
:101680003F0241F60030C0F2B7005CBF42F20040BA
:10169000C0F2F4002168C1F38811A0FB0101FEF73C
:1016A000A1FD21680222C1F3014102EB4101B0FB1F
:1016B000F1F010BD2DE9F04182B0002800F0518119
:1016C0000446007843F60006C4F20206C00744D080
:1016D000B06800F00C00042805D1306880033CD5C8
:1016E0006068D0BB3DE1B06800F00C00082802D172
:1016F00070684002F1D46768B7F5803F06D0306863
:10170000B7F5A02F13D140F480203060306840F44A
:1017100080303060FFF750FC054600BF3068800322
:101720001BD4FFF749FC401B6428F7D9B6E020F42E
:1017300080303060306820F480203060FFF73CFC5F
:101740000546002FEAD13068800306D5FFF734FC48
:10175000411B03206429F6D949E1207880072FD561
:10176000B06810F00C0F07D0B06800F00C0008282B
:101770000AD17068400207D43068800719D5E06844
:10178000012840F0EE8014E0E068002800F08A8034
:1017900000200121C4F247200160FFF70DFC05463F
:1017A0003068800705D4FFF707FC401B0228F7D9F3
:1017B00074E03068216920F0F80040EAC100306030
:1017C0002078000723D561690020C4F2472071B159
:1017D0000121C0F8801EFFF7EFFB0546706F800700
:1017E00015D4FFF7E9FB401B0228F7D956E000218A
:1017F000C0F8801EFFF7E0FB054600BF706F800752
:1018000005D5FFF7D9FB401B0228F7D946E0207821
:10181000400779D5306C4FF00008C0000CD4CDF8EB
:1018200004804FF00108306C40F080503064306C20
:1018300000F080500190019847F20007C4F20007C1
:101840003868C0050FD4386840F480703860FFF7FE
:10185000B3FB05463868C00505D4FFF7ADFB401B58
:101860000228F7D91AE0A768012F05D0306F052F9D
:101870002BD140F004003067306F40F0010030673A
:10188000FFF79AFB054641F2883700BF306F8007AB
:1018900033D4FFF791FB401BB842F7D9032002B0C5
:1018A000BDE8F08100200021C4F247200160FFF76D
:1018B00083FB0546306880077FF582AFFFF77CFB2E
:1018C000411B03200229F5D991E020F00100306787
:1018D000306F20F004003067FFF76EFB0546002FE5
:1018E000D1D141F28837306F800706D5FFF764FB0E
:1018F000411B0320B942F6D979E0B8F1000F1EBFB1
:10190000306C20F080503064A769002F6ED0B06832
:1019100000F00C00082828D1012F22D07068E1695E
:1019200000F480028A421CD1216A00F03F028A4200
:1019300017D147F6C071626A0140B1EB821F10D126
:10194000A16A4FF6FF72C903914300F44032A1F53A
:1019500080318A4205D1E16A00F07060B0EB016F1E
:1019600044D0012002B0BDE8F08140F20008002020
:10197000C4F24728C8F86000FFF71EFB0546022F97
:101980000AD100BF3068800110D5FFF715FB411B5D
:1019900003200229F6D92AE03068800126D5FFF716
:1019A0000BFB411B03200229F6D920E004F11C07A0
:1019B0008FCF0843D90340EA82104FF6FF7291435C
:1019C00040EA0760A1F58031084370600120C8F843
:1019D0006000FFF7F1FA04463068800106D4FFF793
:1019E000EBFA011B03200229F6D900E0002002B027
:1019F000BDE8F08170B550B1D0F824C00446BCF108
:101A0000000F07D00021216104F1140108E0012535
:101A1000284670BD6168B1F5827F03D004F11C01D6
:101A200000220A6000254FF0000EA56294F85110C4
:101A300041B9204684F8505000F040F8D4E909C17B
:101A400001F4005E022284F851202268136823F01A
:101A500040031360D4E90130D4E9031603F4827320
:101A600000F4044001F400611844084406F0020147
:101A70000844616901F001010844A16901F400739F
:101A80001844E36903F038031844236A03F0800321
:101A9000184340EA0E001060042000EA11400CF0E8
:101AA000100108445060D06920F40060D06101202A
:101AB000656584F85100284670BD000080B586B089
:101AC000002145F200020591CDE90311CDE9011194
:101AD000C4F201020068904231D043F60041C4F2E2
:101AE0000001884256D143F6300100200090C4F234
:101AF00002010A6942F400420A610A6902F40042E2
:101B00000092009A00900A6842F004020A60096894
:101B100001F0040100910099062105910321CDE90E
:101B20000301022001A902904FF4E050019040F619
:101B30000000C4F20200FFF74DF906B080BD43F685
:101B400030000091C4F20200426942F48012426106
:101B5000426902F480120092009A0091026842F0F9
:101B600020020260006800F020000090009805202C
:101B700005900320CDE90310022001A902904FF443
:101B80006070019040F60000C4F2020000F5406071
:101B9000FFF720F906B080BD411E0020B0EB116FA9
:101BA0001CBF012070474EF21002F023CEF200025B
:101BB00051604EF62351CEF200010B700721906068
:101BC00011607047704700007047000090F83C308B
:101BD0000222012B5DD010B580F83D20012280F853
:101BE0003C200268D2F804E0D2F808C00C682EF05D
:101BF00070032343536041F2FF73C4F200039A421F
:101C0000BDE810400FDC40F2FF73C4F200039A42BB
:101C10001BDCB2F1804F31D040F20043C4F200032C
:101C20009A422BD02FE040F2FF33C4F201039A42D4
:101C300018DC41F60003C4F200039A421ED00023D0
:101C4000C4F201039A4219D01DE040F60003C4F229
:101C500000039A4212D040F60043C4F200039A42B5
:101C60000CD010E044F20003C4F201039A4205D004
:101C700040F20043C4F201039A4204D149682CF0B7
:101C80008003194391600022012180F83C2080F8F4
:101C90003D10104670470000002804BF0120704727
:101CA00010B5044690F83D0028B9002084F83C00A7
:101CB000204600F01FF80220211D84F83D00206816
:101CC00001F096F8012084F8460084F83E0084F87C
:101CD0003F0084F8400084F8410084F8420084F812
:101CE000430084F8440084F8450084F83D00002057
:101CF00010BD000080B582B041F200410068C4F21E
:101D00000001884220D00021C4F2010188421CBF9A
:101D100002B080BD00200022019043F64000C4F2D2
:101D20000200416841F0010141600021406800F07B
:101D30000100019001981920FFF734FB192002B02F
:101D4000BDE88040FFF71EBB00200022009043F654
:101D50004000C4F20200016841F0200101600A2144
:101D6000006800F02000009000983720FFF71AFB71
:101D7000372002B0BDE88040FFF704BB90F83D106B
:101D800001291CBF01207047022180F83D10006826
:101D9000C16841F00101C16041F2FF71C4F200016C
:101DA00088420FDC40F2FF71C4F2000188421BDC64
:101DB000B0F1804F31D040F20041C4F200018842BE
:101DC0002BD031E040F2FF31C4F20101884218DC2F
:101DD00041F60001C4F2000188421ED00021C4F285
:101DE0000101884219D01FE040F60001C4F2000151
:101DF000884212D040F60041C4F2000188420CD063
:101E000012E044F20001C4F20101884205D040F220
:101E10000041C4F20101884206D1816801F0070146
:101E2000062904BF00207047016841F001010160EC
:101E300000207047016841F21113CA6822F00102C4
:101E4000CA600A6A1A4204D10A6A40F244431A423A
:101E500004D0012180F83D10002070470A6822F06C
:101E600001020A60012180F83D1000207047000047
:101E700090F83C300222012B00F0C28080B580F83F
:101E80003D20012280F83C204FF67772D0F800C048
:101E9000DCF8083023EA0202CCF808200B684F2B4C
:101EA00028DC1F2B42DD202B43D0302B41D0402B90
:101EB00040F0A880D1F804E0C968DCF82030DCF8F4
:101EC000202022F00102CCF82020DCF8182022F09B
:101ED000F00242EA0111CCF8181023F00A0141EA9D
:101EE0000E01CCF82010DCF8081041F0470121F079
:101EF00030017AE06F2B24DDB3F5005F44D0B3F5F9
:101F0000805F74D0702B7DD1D1E90123C9681A4359
:101F100042EA0121DCF8082022F47F421143CCF888
:101F20000810DCF8081041F077015EE00BB1102BCF
:101F300068D1DCF8081021F07001194341F0070165
:101F400053E0502B32D0602B5CD14A68C968DCF872
:101F5000203023F01003CCF82030DCF8183023F4C4
:101F6000704343EA0131DCF82030CCF8181023F03C
:101F7000A00141EA0211CCF82010DCF8081041F071
:101F8000670121F0100130E0D1E90123C9681A434B
:101F900042EA0121DCF8082022F47F421143CCF808
:101FA0000810DCF8081041F480411EE0D1F804E08C
:101FB000C968DCF82030DCF8202022F00102CCF8DF
:101FC0002020DCF8182022F0F00242EA0111CCF8BF
:101FD000181023F00A0141EA0E01CCF82010DCF8B9
:101FE000081041F0570121F02001CCF80810002220
:101FF000002180F83C10012180F83D10BDE88040B0
:10200000104670470122F3E77047000010B5044600
:1020100000680169890744BFC1685FEA81713BD4E8
:102020000169490744BFC1685FEA417150D4016941
:10203000090744BFC1685FEA017166D40169C90636
:1020400044BFC1685FEAC1617CD40169C9071CBF94
:10205000C1685FEAC17140F093800169090644BF1D
:10206000C1685FEA016100F19A800169490644BFD5
:10207000C1685FEA416100F1A1800169890646BF3C
:10208000C1685FEA816110BD6FF0200101612046E7
:10209000BDE81040FFF798BD6FF00201016101211A
:1020A00021778069800703D02046FFF7ADFF05E068
:1020B000204600F08BF8204600F08AF800202077B8
:1020C00020680169490744BFC1685FEA4171AED524
:1020D0006FF00401016102212177806910F4407FD3
:1020E00003D02046FFF790FF05E0204600F06EF891
:1020F000204600F06DF8002020772068016909076C
:1021000044BFC1685FEA017198D56FF008010161B1
:1021100004212177C069800703D02046FFF774FFB0
:1021200005E0204600F052F8204600F051F800206B
:10213000207720680169C90644BFC1685FEAC161B0
:102140007FF583AF6FF01001016108212177C0692D
:1021500010F4407F03D02046FFF756FF05E02046ED
:1021600000F034F8204600F033F800202077206893
:102170000169C9071CBFC1685FEAC1713FF46DAF57
:102180006FF001010161204600F024F82068016928
:10219000090644BFC1685FEA01617FF566AF6FF071
:1021A000800101612046FFF70DFD206801694906A5
:1021B00044BFC1685FEA41617FF55FAF6FF04001E6
:1021C0000161204600F02AF8206856E770470000B9
:1021D0007047000041F200410068C4F200018842EB
:1021E00018D00021C4F20101884215D14EF23C40C2
:1021F000C2F20100016801311A29016038BF70473D
:102200000021016041F600004FF40071C4F20200A9
:10221000FEF7C4BE03F0CCBC70470000704700005E
:10222000704700007047000010B582B0D0F800E0A1
:102230000446DEF80010DEF80C20DEF814305FEA09
:10224000017C00F0C38002F4907003F00103C01819
:1022500000F0FF80C8071FBF12F48070206C40F0B0
:1022600001002064480705D5002B1EBF206C40F0FC
:1022700002002064880705D5002B1EBF206C40F0AB
:1022800004002064BCF1000F07D502F02000C01844
:102290001EBF206C40F008002064206C002800F075
:1022A000748202EA0100800604D5204600F064FF33
:1022B000D4F800E0DEF81400216C00F0400001F0DA
:1022C0000801401800F0A5815EE8030F03E000BF9D
:1022D000206850E8030F216820F4907041E8030261
:1022E000E2B1206850E8030F216820F4907041E8C3
:1022F00003029AB1206850E8030F216820F490701F
:1023000041E8030252B1206850E8030F216820F42D
:10231000907041E80302002ADAD100BF206850E83B
:10232000050F216820F0010041E80502DAB12068BC
:1023300050E8050F216820F0010041E8050292B144
:10234000206850E8050F216820F0010041E80502EF
:102350004AB1206850E8050F216820F0010041E8EB
:102360000502002ADAD1206B012824D1206850E828
:10237000030F216820F0100041E80302DAB1206861
:1023800050E8030F216820F0100041E8030292B1E9
:10239000206850E8030F216820F0100041E8030294
:1023A0004AB1206850E8030F216820F0100041E88E
:1023B0000302002ADAD1202084F83E0000202063A6
:1023C00020684169490640F11E810AE011408A06F1
:1023D00040D5204602B0BDE8104000F0CDBE00BFA1
:1023E000206850E8050F216820F0400041E8050210
:1023F000DAB1206850E8050F216820F0400041E87C
:10240000050292B1206850E8050F216820F04000D5
:1024100041E805024AB1206850E8050F216820F024
:10242000400041E80502002ADAD1A06B002800F044
:10243000EA8042F63171C0F600010165FEF790FABC
:10244000002800F0A281A06B016D02B0BDE8104031
:1024500008471140226BC8061CD5012A1AD100205A
:102460000190DEF800000190DEF804000190019870
:10247000DEF81400400600F19D80E18DA28DE08D14
:1024800000281CBF511A5FEA014000F07E815EE81F
:10249000030F17E0080600F1A280480640F175819D
:1024A000DEF80C0020F04000CEF80C00202084F86C
:1024B0003D00204602B0BDE8104000F0ADBB2068F2
:1024C00050E8030F226820F4907042E80303DBB168
:1024D000206850E8030F226820F4907042E803035C
:1024E00093B1206850E8030F226820F4907042E80E
:1024F00003034BB1206850E8030F226820F490706A
:1025000042E80303002BDAD1206850E8050F226867
:1025100020F0010042E80503DBB1206850E8050F18
:10252000226820F0010042E8050393B1206850E8DA
:10253000050F226820F0010042E805034BB1206836
:1025400050E8050F226820F0010042E80503002B47
:10255000DAD1202084F83E0000202063206850E873
:10256000030F226820F0100042E80303DBB120686B
:1025700050E8030F226820F0100042E8030393B1F3
:10258000206850E8030F226820F0100042E803039F
:102590004BB1206850E8030F226820F0100042E899
:1025A0000303002BDAD189B2204602B0BDE8104007
:1025B000FFF736BEA26B1068436899B2002900F09D
:1025C000E480B4F82CC0614580F0DF80E385D069F9
:1025D000B0F5807F00F0C2805EE8030F23E094F83E
:1025E0003D00212840F0D180A068B0F5805F03D184
:1025F0002069002800F0BC80206A411C216200781C
:10260000CEF80400BCE0204602B0BDE81040FFF761
:1026100009BE2046FFF706FE0020206402B010BD70
:10262000206850E8030F216820F4807041E803021D
:10263000DAB1206850E8030F216820F4807041E887
:10264000030292B1206850E8030F216820F48070E3
:1026500041E803024AB1206850E8030F216820F4E2
:10266000807041E80302002ADAD1206850E8050FA3
:10267000216820F0010041E80502DAB1206850E845
:10268000050F216820F0010041E8050292B12068A1
:1026900050E8050F216820F0010041E805024AB129
:1026A000206850E8050F216820F0010041E805028C
:1026B000002ADAD1206850E8050F216820F0400098
:1026C00041E80502DAB1206850E8050F216820F0E2
:1026D000400041E8050292B1206850E8050F2168EA
:1026E00020F0400041E805024AB1206850E8050F9B
:1026F000216820F0400041E80502002ADAD12020BC
:1027000084F83E0000202063206850E8030F216811
:1027100020F0100041E80302DAB1206850E8030F0E
:10272000216820F0100041E8030292B1206850E8CF
:10273000030F216820F0100041E803024AB120682D
:1027400050E8030F216820F0100041E80302002A3E
:10275000DAD1A06BFEF7BAF8B4F82CC0E08DACEB80
:10276000000081B2204602B0BDE81040FFF758BD1E
:10277000206A30F8021B6FF35F21CEF8041020624C
:10278000E08C0138E084000401D002B010BDDEF816
:102790000C0020F08000CEF80C00DEF80C0040F0B9
:1027A0004000CEF80C0002B010BD0000002804BFAD
:1027B0000120704710B5044690F83D0028B900206C
:1027C00084F83C00204600F021F8242084F83D00E5
:1027D0002068C16821F40051C160204600F048FD26
:1027E0002068016921F490410161416921F02A01C9
:1027F0004161C16841F40051C16000202021206482
:1028000084F83D1084F83E1010BD00002DE9F04F13
:1028100087B00446002044F600020690CDE904008B
:10282000CDE90200C4F200022168914200F08280EA
:1028300041F20000C4F20100814240F0AD8043F655
:10284000300000274FF003080197C4F202004169ED
:1028500041F010014161416901F0100101910199BC
:102860000197016841F00101016002A9006800F0D0
:10287000010001900198072006900220CDE904781C
:1028800003904FF4C06002900020C4F20200FEF7F3
:10289000A1FA40F2D40546F2404A04204FF4003930
:1028A0004FF0006BC2F20005C4F2020AC5E90890BD
:1028B0004FF48060C5E90A872F63C5E900ABC5E91D
:1028C0000277C5E904072846C5E90677FEF73CF913
:1028D000002818BFFDF706FD40F234160420A5635A
:1028E0000AF17801C2F20006C6F82090C6E909088C
:1028F0004020C6E90B77C6E9001BC6E902074FF482
:102900008060C6E904073046C6E90677AC63FEF787
:102910001BF9002818BFFDF7E5FC25200021002247
:102920006663B463FEF73EFD2520FEF72BFD07B07E
:10293000BDE8F08F43F630010190C4F202010A694C
:1029400042F480220A610A6902F480220192019A0B
:1029500001900A6842F008020A60096801F0080163
:1029600001910199072106910321CDE9040102207B
:1029700002A903904FF4407002900020C4F20200BC
:1029800000F54060FEF726FA272000210022FEF71E
:1029900009FD2720FEF7F6FC07B0BDE8F08F000028
:1029A000034690F83E0020280AD100294FF001008C
:1029B00018BF002A00D1704793F83C00012801D1CC
:1029C0000220704700201863DA8518649A8599629E
:1029D000222183F83C0083F83E101968CA6842F44B
:1029E0008072CA604A6942F001024A61CA6842F0D4
:1029F0002002CA60704700002DE9F04140F2100843
:102A000044F210444AF22102C2F20008C2F2010468
:102A1000D8F81010A25C481C6254C8F81000D8F80E
:102A2000141002290AD001291BD0002979D120785D
:102A3000AE2824D10120C8F8140072E0D8F818108C
:102A400088426ED34AF228002158E1B14A1E01F0B3
:102A5000030C032A1CD200220021BCF1000F2BD151
:102A600038E006285DD3A078E17841EA00204AF2F8
:102A70002801605002210630C8E9051051E000200D
:102A8000C8F810004DE000212079814225D02BE0CC
:102A9000A1EB0C0300220021A01804328579C6792D
:102AA000077A407A93422944314439440844C1B2F8
:102AB000F2D1BCF1000F0DD02244BCF1010F93798B
:102AC000194406D0D079BCF1020F01441CBF107A22
:102AD0000144C9B22079814206D1B8F80C0040F017
:102AE0000100A8F80C0019E0E1202146092220721B
:102AF0004FF46C40E080AE2020704FF44070608056
:102B0000CD2020714AF22000205C60704AF2220041
:102B1000205C607108F1300000F00EF80020C8E978
:102B200004004AF221000122211808F13000BDE81A
:102B3000F041FFF735BF0000B0B5044690F83D0006
:102B4000202806D141B1134632B194F83C00012847
:102B500005D102252846B0BD01252846B0BD002577
:102B60000120E38442F63D7243F2711C2564A38484
:102B7000216284F83C002120C0F60002C0F6000C5F
:102B800084F83D00606BC0E9132543F2C102C0F632
:102B90000002C0E90F2C22680432FEF789F8206891
:102BA0006FF0400140F8141B84F83C5050E8000FCF
:102BB000216840F0800041E805025AB3002500BFBB
:102BC000206850E8050F216840F0800041E80502C8
:102BD000FAB1206850E8050F216840F0800041E814
:102BE00005029AB1206850E8050F216840F0800086
:102BF00041E8050252B1206850E8050F216840F015
:102C0000800041E80502002ADAD103E000252846C9
:102C1000B0BD00252846B0BD40F21000C2F2000051
:102C2000818941F0040181817047000070470000F4
:102C3000FEE7000010B586B040F2EC200023002132
:102C40004FF6FF72C2F20000C4F20103CDE9041195
:102C5000CDE90211C0E90031C0E90212C0E9041156
:102C60008161CDE90011FFF717F820B1EFF3108073
:102C700072B600BFFEE74FF4805002A9029040F206
:102C8000EC20C2F20000FFF7F3F820B1EFF3108060
:102C900072B600BFFEE740F2EC2400206946C2F2A3
:102CA0000004CDE900002046FEF790FF18B1EFF3D5
:102CB000108072B6FEE740F21000C2F200000189F7
:102CC00040896160E0602046FEF7E6FF002804BF0F
:102CD00006B010BDEFF3108072B600BFFEE7000033
:102CE000FEE70000FEE700007047000070470000AC
:102CF000FEF7E0BA80B592B043F640010020CDE97E
:102D00000A00CDE908000590CDE90300CDE90100F6
:102D10000090C4F202010A6842F080520A60096819
:102D200001F0805100910099009047F20000C4F238
:102D30000000016841F440410160B421006800F4E2
:102D400040400090009804201190022010900F91B4
:102D500006210E914FF48001CDE90C014FF4803033
:102D600007900120069006A8FEF7A4FC18B1EFF327
:102D7000108072B6FEE7FEF753FB20B1EFF3108030
:102D800072B600BFFEE74FF48050052105904FF466
:102D9000A050049000200390022002900F20019088
:102DA00001A8FEF77BFB002804BF12B080BDEFF343
:102DB000108072B6FEE700004EF68850CEF200009A
:102DC000016841F4700101607047000040F2EC209E
:102DD000C2F20000FFF71AB940F22C00C2F2000064
:102DE000FDF7ECBC40F23430C2F20000FFF70EB940
:102DF00040F6FF3C0268C4F2000C604526DCB0F1EE
:102E0000804F34D040F20043C4F2000398422ED0E9
:102E100040F60003C4F20003984228D041F6FF7345
:102E2000C4F2000398422CDC604542DCB0F1804FD4
:102E300064D040F20043C4F2000398425ED040F6F2
:102E40000003C4F20003984258D05BE040F6004310
:102E5000C4F2000398420AD040F20043C4F20103D6
:102E6000984204D00023C4F201039842D6D14B68A3
:102E700022F070021A4341F6FF73C4F20003984235
:102E8000D2DD43F6FF73C4F20103984224DC42F220
:102E90000003C4F20003984230D00023C4F20103BF
:102EA00098422BD040F20043C4F20103984225D04F
:102EB00028E040F60043C4F2000398421ED041F6D9
:102EC0000003C4F20003984218D041F60043C4F254
:102ED0000003984212D015E044F20003C4F201034B
:102EE00098420BD044F60003C4F20103984205D087
:102EF00044F20043C4F20103984203D1CB6822F4A8
:102F000040721A434B6922F080021A4340F2004398
:102F10000260C4F201038A68C2620A68826240F4F5
:102F200080629A4204BF09690163012141617047CF
:102F3000806B0021C185C184FFF774B9806B016883
:102F40004A6990F83D30212B2FD112F080022CD00D
:102F50000022C28401E000BF016851E8031F02683B
:102F600021F0C00142E80313DBB1016851E8031FFF
:102F7000026821F0C00142E8031393B1016851E8EF
:102F8000031F026821F0C00142E803134BB101683E
:102F900051E8031F026821F0C00142E80313002B2F
:102FA000DAD1202180F83D1001684A6990F83E305E
:102FB000222B40F07F8012F040027BD00022C2859D
:102FC00001E000BF016851E8031F026821F490711D
:102FD00042E80313E3B1016851E8031F026821F4DA
:102FE000907142E803139BB1016851E8031F026826
:102FF00021F4907142E8031353B1016851E8031FB3
:10300000026821F4907142E80313002BDAD100BF6B
:10301000016851E8051F026821F0010142E805132B
:10302000DBB1016851E8051F026821F0010142E8A7
:10303000051393B1016851E8051F026821F00101F1
:1030400042E805134BB1016851E8051F026821F001
:10305000010142E80513002BDAD1016B012924D1CB
:10306000016851E8031F026821F0100142E80313D0
:10307000DBB1016851E8031F026821F0100142E84A
:10308000031393B1016851E8031F026821F0100196
:1030900042E803134BB1016851E8031F026821F0B5
:1030A000100142E80313002BDAD1202180F83E10F2
:1030B00000210163016C41F010010164FFF7B2B817
:1030C0000168806B0968C90548BFFFF7A5BD0021ED
:1030D000C18400BF016851E8051F026821F080012A
:1030E00042E80513E3B1016851E8051F026821F0C9
:1030F000800142E805139BB1016851E8051F026891
:1031000021F0800142E8051353B1016851E8051F21
:10311000026821F0800142E80513002BDAD100BFDC
:10312000016851E8031F026841F0400142E80313BF
:10313000EBB1016851E8031F026841F0400142E829
:103140000313A3B1016851E8031F026841F0400175
:1031500042E80313002B08BF7047016851E8031FC2
:10316000026841F0400142E80313002BD8D17047B8
:10317000806BFFF75BBD000090F83E10222918BF5E
:1031800070478368B3F5805F05D10169B1B100F183
:1031900028010A680BE00146002B51F8282F01D1C5
:1031A000036923B103685B6803F07F0301E00368F0
:1031B0005B6813700A6801320A6007E00168826A7E
:1031C00049686FF35F2122F8021B8262C18D0139C9
:1031D000C185090400D070470168CA6822F0200246
:1031E000CA60CA6822F48072CA604A6922F0010289
:1031F0004A61202280F83E20026B012A18BFFFF7A7
:10320000FBBB0022026300BF51E8031F026821F0EC
:10321000100142E803130168DBB151E8031F0268A3
:1032200021F0100142E80313016893B151E8031F34
:10323000026821F0100142E8031301684BB151E824
:10324000031F026821F0100142E803130168002BFC
:10325000DAD10A68D20608D581B0002200920A6845
:10326000009249680091009901B0818DFEF7D8BFA6
:10327000B0B50446006849F20C650169E26821F4C2
:10328000405111430161D4F808C0D4E90423D4F8B3
:103290001CE0C16842EA0C02A9431A4342EA0E024A
:1032A0001143C1604169A26921F440711143416138
:1032B00041F2004140F48060C4F20101884202D131
:1032C000FEF7B0F901E0FEF799F9E26919216368A8
:1032D000A0FB0101B2F5004F1FD15A00DB0FFCF734
:1032E00081FF48F21F51C5F2EB11A0FB01235A09DF
:1032F0006FF0630302FB0300322303EBC000A0FB6B
:1033000001014FF4F87000EA1110C1F3421100EB13
:103310000210084321688860B0BD9A009B0FFCF73B
:1033200061FF48F21F51C5F2EB11A0FB01235A09BE
:103330006FF0630302FB0300322303EB0010A0FBDA
:103340000101F02000EA5110C1F3431100EB02101B
:10335000084321688860B0BD40F24000C2F200001E
:10336000FEF762BF40F27C30C2F20000FEF75CBFA5
:10337000FEE7000040F28400C2F2000041680A69E2
:1033800043881A4018BF012209690088084018BF05
:10339000012042EA400070472DE9F04385B0DDF896
:1033A00034900024984605460094CDF8049000F02F
:1033B000CDFA40F28401C2F200014B884A681B0436
:1033C0009361CDF81090049B1BB30394039B049F5F
:1033D000BB4208D323E000BF039B01330393039B4D
:1033E000049FBB421BD2039B01330393039B049FA7
:1033F000BB4214D2039B01330393039B049FBB4244
:103400000DD2039B01330393039B049FBB42E3D381
:1034100005E000BF00BF00BF00BF00BF4A680B88C7
:10342000DDF830C04FF0000E00241B0493616B1CCC
:1034300000BF00BF5FB24A88B7F1FF3FC8BF1204A8
:103440004F68BA61CDF81090049A2AB3CDF80CE019
:10345000039A049DAA4208D324E000BF039A0132D4
:103460000392039A049DAA421CD2039A013203924A
:10347000039A049DAA4215D2039A01320392039A39
:10348000049DAA420ED2039A01320392039A049D2C
:10349000AA42E3D306E000BF00BF00BF00BF00BFE9
:1034A00000BF4F680A88BA61CDF81090049D2DB313
:1034B000CDF80CE0039D049EB54208D325E000BF83
:1034C000039D01350395039D049EB5421DD2039DC6
:1034D00001350395039D049EB54216D2039D013527
:1034E0000395039D049EB5420FD2039D01350395BC
:1034F000039D049EB542E3D307E000BF00BF00BFB9
:1035000000BF00BF00BF0A884F68013412045B008F
:10351000082CBA6100BF7FF48DAF4B684A889A616E
:10352000CDF81090049AF2B1002201E0039A013222
:103530000392039A049FBA421BD2039A0132039268
:10354000039A049FBA4214D2039A01320392039A57
:10355000049FBA420DD2039A01320392039A049F48
:10356000BA42E3D305E000BF00BF00BF00BF00BF09
:103570004B680F889F61CDF81090049A1AB300220F
:103580000392039A049DAA4224D200BF039A0132F7
:103590000392039A049DAA421CD2039A0132039219
:1035A000039A049EB24215D2039A01320392039AFF
:1035B000049EB2420ED2039A01320392039A049EF1
:1035C000B242E3D306E000BF00BF00BF00BF00BFB0
:1035D0000F884B683A04BCF1000F9A6100F05781E4
:1035E0004FF0000E00250024CDF81090049A1AB375
:1035F000CDF80CE0039A049FBA4222D2039A01321A
:103600000392039A049FBA421BD2039A0132039297
:10361000039A049B9A4214D2039A01320392039AAA
:10362000049B9A420DD2039A01320392039A049B9F
:103630009A42E3D305E000BF00BF00BF00BF00BF58
:1036400000BF4F680A88BA61CDF81090049E1EB37F
:10365000CDF80CE0039E049B9E4224D2039B0133D1
:103660000393039B049EB3421DD2039B0133039338
:10367000039B049EB34216D2039B01330393039B27
:10368000049EB3420FD2039B01330393039B049E1A
:10369000B342E3D307E000BF00BF00BF00BF00BFDD
:1036A00000BF0A884F683B694E881204BA61EA1F5E
:1036B00005F1010518BF0122334018BF0123082D71
:1036C00043EA040303FA02F47FF48EAFACF1010C79
:1036D00008F8014B5FEA0C452ED04A884C6812046A
:1036E000A261CDF81090049A002A4FD0CDF80CE0DA
:1036F000039A049B9A4208D34EE000BF039A01321A
:103700000392039A049B9A4246D2039A013203928F
:10371000039A049B9A423FD2039A01320392039A7E
:10372000049B9A4238D2039A01320392039A049B73
:103730009A42E3D330E000BFCDF81090049A002AFB
:1037400067D0CDF80CE0039A049B9A4207D365E05A
:10375000039A01320392039A049B9A425ED2039A1F
:1037600001320392039A049B9A4257D2039A013280
:103770000392039A049B9A4250D2039A0132039215
:10378000039A049B9A42E3D348E000BF00BF00BF06
:1037900000BF00BF00BF4C680A88A261CDF810903E
:1037A000049B2BB3CDF80CE0039B049EB34208D3DB
:1037B00025E000BF039B01330393039B049EB342A8
:1037C0001DD2039B01330393039B049EB34216D285
:1037D000039B01330393039B049EB3420FD2039BCD
:1037E00001330393039B049EB342E3D307E000BF7E
:1037F00000BF00BF00BF00BF00BF0A884C681204B2
:10380000A26100BF4A684B889361002D7FF4EAAE45
:103810003CE000BF00BF00BF00BF00BF4A680F8888
:103820009761CDF81090049B1BB3CDF80CE0039B7F
:10383000049CA34207D323E0039B01330393039B20
:10384000049CA3421CD2039B01330393039B049C5F
:10385000A34215D2039B01330393039B049CA34211
:103860000ED2039B01330393039B049CA342E3D337
:1038700006E000BF00BF00BF00BF00BF0F884A685E
:103880003B04936100BF002D7FF4ACAE4B684A88C7
:1038900012049A61CDF81090049AF2B1002201E06E
:1038A000039A01320392039A049FBA421BD2039AED
:1038B00001320392039A049FBA4214D2039A01324E
:1038C0000392039A049FBA420DD2039A01320392E3
:1038D000039A049FBA42E3D305E000BF00BF00BFD4
:1038E00000BF00BF4B680A889A61CDF81090049A17
:1038F000FAB1002202E000BF039A01320392039A58
:10390000049FBA421BD2039A01320392039A049F86
:10391000BA4214D2039A01320392039A049FBA4224
:103920000DD2039A01320392039A049FBA42E3D361
:1039300005E000BF00BF00BF00BF00BF4B68498863
:10394000C0B2996105B0BDE8F08300002DE9F04FE9
:1039500084B040F2840CDDF838E0C2F2000CBCF810
:103960000270DCF804403F04A761CDF80CE0039D31
:10397000FDB1002502E000BF029D01350295029DC8
:10398000039EB5421CD2029D01350295029D039E05
:10399000B54215D2029D01350295029D039EB542A6
:1039A0000ED2029D01350295029D039EB542E3D3DE
:1039B00006E000BF00BF00BF00BF00BFDCF804404E
:1039C000BCF80050DDF834804FF000092D04A561EB
:1039D00000BFDCF804B0002445B2BCF80270B5F1B9
:1039E000FF3FC8BF3F04CBF81870CDF80CE0039D33
:1039F00025B3CDF80890029D039FBD4225D200BF9C
:103A0000029D01350295029D039FBD421DD2029D7C
:103A100001350295029D039EB54216D2029D0135E5
:103A20000295029D039EB5420FD2029D013502957B
:103A3000029D039EB542E3D307E000BF00BF00BF75
:103A400000BF00BF00BFDCF804B0BCF8007040004D
:103A5000CBF81870CDF80CE0039D2DB3CDF808908D
:103A6000029D039EB54208D327E000BF029D0135A9
:103A70000295029D039EB5421FD2029D013502951B
:103A8000029D039EB54218D2029D01350295029D0A
:103A9000039EB54211D2029D01350295029D039EFF
:103AA000B542E3D309E000BF00BF00BF00BF00BFC5
:103AB00000BFBCF80070DCF804B001343D04082CF1
:103AC000CBF818507FF488AFBCF802A0CBF818A050
:103AD000CDF80CE00398F0B1002001E0029801302D
:103AE00002900298039CA04220D2029801300290DA
:103AF0000298039CA04219D20298013002900298C9
:103B0000039CA04212D20298013002900298039CBA
:103B1000A042E3D30AE000BF00BF00BF00BF00BF68
:103B2000BCF802A0BCF80070DCF804B0CBF8187048
:103B3000DBF810000190CDF80CE00398F8B10020FC
:103B400002E000BF0298013002900298039CA0425C
:103B50001ED20298013002900298039CA04217D214
:103B60000298013002900298039CA04210D2029861
:103B7000013002900298039CA042E3D308E000BF0A
:103B800000BF00BF00BF00BFBCF80070DCF804B08D
:103B90003804022ACBF8180000BF40F0B380CDF8FB
:103BA00000A00A0A4FF0000A4FF4FF7B002400BF78
:103BB000BCF80200150658BF0004DCF80450A861E8
:103BC000CDF80CE0039818B3CDF808A00298039F35
:103BD000B84224D20298013002900298039FB84262
:103BE0001DD20298013002900298039EB04216D274
:103BF0000298013002900298039EB0420FD20298C0
:103C0000013002900298039EB042E3D307E000BF68
:103C100000BF00BF00BF00BF00BFDCF80450BCF80D
:103C20000000A861CDF80CE0039F2FB3CDF808A0E9
:103C3000029FDDF80C904F4527D200BF029F01374D
:103C40000297029F039EB7421FD2029E0136029640
:103C5000029E039FBE4218D2029E01360296029E29
:103C6000039FBE4211D2029E01360296029E039F1E
:103C7000BE42E3D309E000BF00BF00BF00BF00BFEA
:103C800000BFBCF80000DCF80450013400040BEA6B
:103C90004202082CA86100BF7FF48AAFDCF8042040
:103CA000BCF802009061CDF80CE00398002800F009
:103CB000CC80002002900298039CDDE900ABA0427A
:103CC00080F0CC800298013002900298039CA042C0
:103CD00080F0C4800298013002900298039CA042B8
:103CE00080F0BC800298013002900298039CA042B0
:103CF00080F0B4800298013002900298039CA042A8
:103D0000E0D3ABE0DDF804B000224FF4FF790024EB
:103D1000BCF802000D0658BF0004DCF80470B8615E
:103D2000CDF80CE0039818B302920298039DA842C4
:103D300007D324E00298013002900298039DA84224
:103D40001DD20298013002900298039DA84216D21B
:103D50000298013002900298039DA8420FD2029867
:103D6000013002900298039DA842E3D307E000BF10
:103D700000BF00BF00BF00BF00BFDCF80470BCF88C
:103D8000005009EA4101BD61CDF80CE0039818B379
:103D900002920298039EB04207D326E002980130B7
:103DA00002900298039EB0421FD202980130029006
:103DB0000298039EB04218D20298013002900298F5
:103DC000039EB04211D20298013002900298039EE5
:103DD000B042E3D309E000BF00BF00BF00BF00BF97
:103DE00000BFBCF80050DCF8047001342804082C33
:103DF000B86100BF7FF48CAFDCF80410BCF802009F
:103E00008861CDF80CE0039800284ED0002001E036
:103E10000298013002900298039A90424CD2029884
:103E2000013002900298039A904245D202980130E4
:103E300002900298039A90423ED20298013002907A
:103E40000298039A9042E3D336E000BF00BF00BF60
:103E500000BF00BFDCF80420DDE900ABBCF8004087
:103E60009461CDF80CE00398002851D0002001E0C7
:103E70000298013002900298039DA84251D2029804
:103E8000013002900298039DA8424AD20298013064
:103E900002900298039DA84243D2029801300290FA
:103EA0000298039DA842E3D33BE000BF00BF00BFE0
:103EB00000BF00BFDCF80410BCF800208A61CDF818
:103EC0000CE00398002800F0D080002002E000BF42
:103ED0000298013002900298039CA04280F0CE80AC
:103EE0000298013002900298039CA04280F0C680A4
:103EF0000298013002900298039CA04280F0BE809C
:103F00000298013002900298039CA042E0D3B5E0F1
:103F100000BF00BF00BF00BF00BFBCF80040DCF81E
:103F2000042020044FF4FF7900249061002200BF98
:103F3000BCF802000D0658BF0004DCF80470B8613C
:103F4000CDF80CE0039818B302920298039DA842A2
:103F500007D324E00298013002900298039DA84202
:103F60001DD20298013002900298039DA84216D2F9
:103F70000298013002900298039DA8420FD2029845
:103F8000013002900298039DA842E3D307E000BFEE
:103F900000BF00BF00BF00BF00BFDCF80470BCF86A
:103FA000005009EA4101BD61CDF80CE0039818B357
:103FB00002920298039EB04207D326E00298013095
:103FC00002900298039EB0421FD2029801300290E4
:103FD0000298039EB04218D20298013002900298D3
:103FE000039EB04211D20298013002900298039EC3
:103FF000B042E3D309E000BF00BF00BF00BF00BF75
:1040000000BFBCF80050DCF8047001342804082C10
:10401000B86100BF7FF48CAFDCF80410BCF802007C
:104020008861CDF80CE0039880B3002002E000BF67
:104030000298013002900298039A90422DD2029881
:10404000013002900298039A904226D202980130E1
:1040500002900298039A90421FD202980130029077
:104060000298039A9042E3D317E000BF00BF00BF5D
:1040700000BF00BFBCF80020DCF804101004886109
:1040800000BFB8F1000F40F0658080E100BF00BFC5
:1040900000BF00BF00BFDCF80410BCF800208A613C
:1040A000CDF80CE00398F0B1002001E00298013057
:1040B00002900298039CA0421ED202980130029006
:1040C0000298039CA04217D20298013002900298F5
:1040D000039CA04210D20298013002900298039CE7
:1040E000A042E3D308E000BF00BF00BF00BF00BF95
:1040F000BCF80020DCF8041010048861CDF80CE056
:104100000398F0B1002001E002980130029002987B
:10411000039988421AD202980130029002980399BA
:10412000884213D202980130029002980399884283
:104130000CD2029801300290029803998842E3D38E
:1041400004E000BF00BF00BF00BF00BFB8F1000F18
:1041500000F01D81002100BF1A78A8F10108002697
:1041600054B2BCF80200B4F1FF3FC8BF0004DCF851
:104170000440A061CDF80CE0039818B302910298B6
:10418000039DA84207D324E00298013002900298D0
:10419000039DA8421DD20298013002900298039D0F
:1041A000A84216D20298013002900298039DA842BC
:1041B0000FD20298013002900298039DA842E3D3E7
:1041C00007E000BF00BF00BF00BF00BF00BFDCF8BA
:1041D0000440BCF800505200A561CDF80CE00398F3
:1041E00020B302910298039FB84208D327E000BF92
:1041F0000298013002900298039FB8421FD20298A1
:10420000013002900298039FB84218D20298013000
:1042100002900298039FB84211D202980130029096
:104220000298039FB842E3D309E000BF00BF00BF7C
:1042300000BF00BF00BFBCF80050DCF804400136EE
:104240002804082EA06100BF7FF48AAFDCF80420A8
:10425000BCF802009061CDF80CE0039820B3029105
:104260000298039CA04208D325E000BF02980130C9
:1042700002900298039CA0421DD202980130029045
:104280000298039CA04216D2029801300290029834
:10429000039CA0420FD20298013002900298039C26
:1042A000A042E3D307E000BF00BF00BF00BF00BFD4
:1042B00000BFDCF80420BCF800409461CDF80CE0AD
:1042C000039818B302910298039DA84207D326E0F1
:1042D0000298013002900298039DA8421FD20298D2
:1042E000013002900298039DA84218D20298013032
:1042F00002900298039DA84211D2029801300290C8
:104300000298039DA842E3D309E000BF00BF00BFAD
:1043100000BF00BF00BFBCF80040DCF80420200450
:1043200001339061CDF80CE0039838B30291029804
:10433000039A904207D31BE0029801300290029842
:10434000039A904214D20298013002900298039A84
:1043500090420DD20298013002900298039A904246
:1043600006D20298013002900298039A9042E3D359
:104370005FEA08407FF4F0AE09E000BF00BF00BF75
:1043800000BF00BF00BF5FEA08407FF4E5AEBCF8A5
:104390000200DCF8041000048861CDF80CE00398FA
:1043A000F8B1002002E000BF0298013002900298AC
:1043B000039A90421CD20298013002900298039A0C
:1043C000904215D20298013002900298039A9042CE
:1043D0000ED20298013002900298039A9042E3D3E1
:1043E00006E000BF00BF00BF00BF00BFDCF8041044
:1043F000BCF800200BEA0A008A61CDF80CE0039AB1
:10440000FAB1002202E000BF029A01320292029A3F
:10441000039B9A421CD2029A01320292029A039B97
:104420009A4215D2029A01320292029A039B9A4250
:104430000ED2029A01320292029A039B9A42E3D36D
:1044400006E000BF00BF00BF00BF00BFDCF80410E3
:10445000BCF8022000288A6118BF012004B0BDE822
:10446000F08F000010B586B040F28404024640F29E
:1044700000400129C2F20004C4F20200606003D1CE
:104480007AB16288218814E040F2001100F50060E2
:104490004FF40072C0F20021C4E900104FF48071A3
:1044A00007E040F200118022C0F2800121604FF449
:1044B0008071032311430493012303931123029377
:1044C000019101A9FCF786FC608821880122014343
:1044D0006068FCF76BFD06B010BD00002DE9F041EF
:1044E00086B044F21044C2F20104207ACC281AD1DA
:1044F00040F2100EC2F2000EBEF80C00C0055ED4F1
:1045000044F2480040F2C0310022C0F20100C2F281
:1045100000018EF802200A5244F24400C0F2010069
:104520000A50012057E044F2400040F2C031C0F28E
:104530000100C2F20001085C80B940F210020121C2
:104540000DF11703C2F200028DF81710107852789F
:10455000CDE9001205210122FFF7F8F940F210051C
:10456000C2F20005A88920F48070A881A88920F0F3
:104570004000A88140F23430C2F20000FDF75AFC3E
:10458000FF202072AE2020704FF4A06060804AF2BD
:104590002000205C60704AF22200205C6071A079EB
:1045A000E179627AA37A0844214610440B22184428
:1045B0000138207105F13000FEF7BEFA63E044F2E5
:1045C000440040F2C0319EF80220C0F20100C2F265
:1045D0000001085A013044F2440340F2C03800267A
:1045E00044F2400CC0F20103C2F20008C0F2010C18
:1045F00028F8030044F2460308EB4200C0F201032E
:10460000C652E07908F80C00BEF80C3043F4807311
:10461000AEF80C3008F5A033B4F809504A332DBA7F
:104620002D0C23F8125082F0010233F812508EF84C
:1046300002201DB34AF2200003EB4203002502FBD7
:10464000008200BF60196F1CC67A56551E88B7429B
:1046500012D2077B5619A91C77701F88B9420BD25A
:10466000417BEF1CB17019888F4205D2807B0435E5
:10467000F07018888542E5D318F80C0018B940F29C
:10468000B270AEF8000044F2440040F2C031C0F213
:104690000100C2F20001085A002846D040F210057D
:1046A000592041F2004200244FF6FF71C2F200058A
:1046B000C1F28730C4F20002A860A88940F040002F
:1046C000A88140F23430C2F200008461C0E90024C5
:1046D000C0E90241CDE90244FDF7DEFA18B1EFF37B
:1046E000108072B6FEE7CDE9024440F2343402A9EC
:1046F000C2F200042046FDF769FA20B1EFF3108002
:1047000072B600BFFEE7288960606889E0602046D5
:10471000FDF7C2FA18B1EFF3108072B6FEE740F26F
:104720003430C2F20000FDF729FB002006B0BDE8DE
:10473000F08100008AB0FCF7CBFDFEF7DBFA43F610
:104740003004002640F200474FF4004100224FF4AD
:10475000004BCDE907660396C4F20204C4F20207D7
:104760002068A7F5806840F010002060206800F005
:104770001000039003980396206840F00400206026
:10478000206800F00400039003980396206840F02E
:1047900020002060206800F020000390039803961A
:1047A000206840F080002060206800F080000390C6
:1047B00003980396206840F001002060206800F014
:1047C0000100039003980396206840F002002060E7
:1047D000206800F00200039003980396206840F0E0
:1047E00008002060206800F00800039003980396FA
:1047F000206840F040002060206800F040000390F6
:1048000003984046FCF7D2FB07F5006AB821002266
:104810005046FCF7CBFB07F5A0594FF4FC410022B2
:104820004846FCF7C3FB384618210022FCF7BEFBC4
:104830004FF4881004AD05900C202946049007F52C
:1048400040600696FCF7C6FA4EF20300069629462B
:10485000CDE904063846FCF7BDFACDF810B04FF0AC
:10486000010B40462946CDE90666CDF814B0FCF7A9
:10487000B1FAB820CDE906662946CDE9040B5046C9
:10488000FCF7A8FA4FF4FC400796CDE905B6294697
:1048900004904846FCF79EFA18200796CDE905B625
:1048A000294604903846FCF795FA032006962946D7
:1048B0000590202004903846FCF78CFA082000214F
:1048C0000022FCF76FFD0820FCF75CFD09200021A9
:1048D0000022FCF767FD0920FCF754FD0496002137
:1048E0000022206840F480002060206800F48000EE
:1048F000049004983A20FCF755FD3A20FCF742FD5D
:10490000462000210022FCF74DFD4620FCF73AFD31
:1049100040F28C0001234FF48031A7F56442C2F2CB
:104920000000C0F60073C66280F8206080F818B0FE
:10493000836280F83060C0F81CB0C0E90021C0E993
:104940000266C0E9046BCDE90666CDE90466FBF7B3
:104950001DFE20B1EFF3108072B600BFFEE740F2FB
:104960008C0004A90696CDE9046BC2F20000FBF7A7
:10497000C1FC20B1EFF3108072B600BFFEE740F239
:10498000100B0024A7F5C831C2F2000BCDE9044496
:10499000584640F81C1FFBF747FF20B1EFF310808B
:1049A00072B600BFFEE7CDE904440BF11C0404A974
:1049B00000222046FBF7D6FE18B1EFF3108072B646
:1049C000FEE704A920461022FBF7CCFE18B1EFF356
:1049D000108072B6FEE740F23C204FF4827600244D
:1049E0004FF400780A25A7F5E431C2F20000C0E9CF
:1049F0000844C0E90A45C0E90016C0E90244C0E91C
:104A00000444C0E90684FCF7F5FF20B1EFF3108001
:104A100072B600BFFEE740F29420A7F53441C2F21F
:104A20000000C0E90844C0E90A45C0E90016C0E931
:104A30000244C0E90444C0E90684FCF7DBFF20B16E
:104A4000EFF3108072B600BFFEE7FEF7F3F840F216
:104A5000343000244FF6FF71A7F5F832C2F200009F
:104A60008461C0E90024C0E90241CDE90444FDF7B6
:104A700013F920B1EFF3108072B600BFFEE7CDE965
:104A8000044440F2343404A9C2F200042046FDF785
:104A90009DF820B1EFF3108072B600BFFEE7BBF8BF
:104AA00008006060BBF80A00E0602046FDF7F4F8FB
:104AB00018B1EFF3108072B6FEE7A7F574415846BF
:104AC0000C224FF461244E463D4640F8301F002131
:104AD000C0E90141C0E90311C0E90521C161FDF749
:104AE00065FE18B1EFF3108072B6FEE70BF1300AE5
:104AF000CBF834405046FDF759FE18B1EFF3108063
:104B000072B6FEE740F27C3000240C214FF46122A3
:104B1000A5F5DE33C2F20000C0E90032C0E902446C
:104B2000C0E90441C0E90644FDF740FE18B1EFF3C7
:104B3000108072B6FEE740F2941048F2A0624FF483
:104B40008041A5F5D833C2F20000C0F20102046230
:104B5000C0E90032C0E90244C0E90414C0E90644D7
:104B6000FCF76EFA18B1EFF3108072B6FEE740F270
:104B700094100021C2F20000FCF724FA18B1EFF300
:104B8000108072B6FEE740F2941000210024C2F2B9
:104B90000000FCF735FA18B1EFF3108072B6FEE7AB
:104BA00040F2E81041F680224FF48041A5F5D6335B
:104BB000C2F20000C0F206020462C0E90032C0E99D
:104BC0000244C0E90414C0E90644FCF739FA18B1FC
:104BD000EFF3108072B6FEE740F2E8100021C2F257
:104BE0000000FCF7EFF918B1EFF3108072B6FEE7A2
:104BF00040F2E8100021C2F20000FCF701FA18B1FF
:104C0000EFF3108072B6FEE740F20C0001214FF086
:104C100000080124C2F2000040788BF80100002057
:104C2000FFF720FC44F210494AF221000122C2F2AF
:104C3000010909EB00015046FDF7B2FE28460821A4
:104C40000122FCF7B3F930464FF4005101223746F8
:104C5000FCF7ACF930464FF480410122FCF7A6F98D
:104C6000284608210122FCF7A1F92846102101223B
:104C7000FCF79CF9284620210122FCF797F9FEF762
:104C800079FB23210328A9F80A1040F20001C0F2A1
:104C90002251C9F8061003D199F80C004A300BE0F4
:104CA0004AF2240149F80140A9F80E8089F80D0064
:104CB000FF2089F80C004920AE210D2289F8001050
:104CC0004FF4E061A9F8021089F804004AF22000CC
:104CD000494619F8000089F801004AF2220019F843
:104CE000000089F805005046FDF726FFB320C2F208
:104CF0000F70CBF80800BBF80C0040F02000ABF8B8
:104D00000C00FDF797FF40F2EC20C2F20000FDF727
:104D100035F809F10C0001270290BBF80C00C00720
:104D2000FBD099F8060002286FD0012822D040B9A4
:104D300099F80700042804D8DFE800F00AA7C303A5
:104D4000CC00BBF80C0020F00100ABF80C00E4E74D
:104D5000FEF710FB23210328A9F80A1040F20001F6
:104D6000C0F22251C9F8061040F03C8199F80C00BD
:104D70004A3044E1BBF80C00000607D58BF80670FA
:104D8000BBF80C0020F08000ABF80C00BBF80C0066
:104D900040F20C03C2F2000340F01000ABF80C002C
:104DA00099F8082099F80B0099F807109B5CB9F85E
:104DB00009208BF8000001F00F06C9069BF801805E
:104DC00012BA8BF801304FEA124421D4A1198AB2E9
:104DD000029900F07FFC10BBAE2089F80000002093
:104DE00089F807004FF40070A9F802004AF2200089
:104DF00019F8000089F801004AF2220019F80000B1
:104E000089F8050099F8060022E0FFF767FB98E7AC
:104E10000299324600F05EFC002800F0B380AE201C
:104E200089F80000FF2089F807004FF40070A9F806
:104E300002004AF2200019F8000089F801004AF245
:104E4000220019F8000089F8050099F806000138D9
:104E500089F80400504649460822FDF76DFEBBF86C
:104E60000C00002120F01000ABF80C008BF8018042
:104E70009BF806008BF80610BBF80C1021F080019F
:104E800041EAC010ABF80C005BE799F8050099F80F
:104E9000081099F8092000288BF805108BF80020DD
:104EA0003FF44FAFAE204946072289F800004FF487
:104EB0008070A9F80200002089F804004AF220005E
:104EC000AAE04EF60C500421CEF20000C0F2FA51D6
:104ED000016036E7002089F8080001208DF81000F5
:104EE00040001421012204AB00970191C0B20021BF
:104EF000FEF72CFD9DF8101040B999F808004B0002
:104F000009EB00020130537289F80800481CC1B255
:104F10008DF810007729E3D3AE20002189F8000036
:104F200089F804104AF2200019F8000089F80100FD
:104F30004AF2220019F8000089F8050099F80830B3
:104F400003F1030E002B4FEA1E2289F803E089F8D3
:104F50000220A3F1010202F0030C00F09780AEEBF7
:104F60000C060021002309EB03040433A279E07945
:104F7000257A647A9E4211440844284404EB0001D7
:104F8000F1D184E009EB06009BF80130224600F1E4
:104F90000C019BF8000000F093F8A319AE2000214B
:104FA00003F1060E89F8000089F804104AF2200087
:104FB00005334FEA1E2289F803E00EF0030C032BA1
:104FC00089F8022019F800204AF2220089F801200D
:104FD00019F8002089F805202CD20023BCF1000F1D
:104FE0003FD14BE04AF2240149F801700021A9F8B1
:104FF0000E1089F80D00FF2089F80C004920AE2121
:105000000D2289F800104FF4E061A9F8021089F828
:1050100004004AF22000494619F8000089F801000E
:105020004AF2220019F8000089F805005046FDF701
:1050300083FD86E6A11900230631A1EB0C060021B1
:1050400009EB03050433AC79EA79287A6D7A9E423C
:1050500021441144084405EB0001F1D1BCF1000FDB
:105060000CD04B44BCF1010F9879014406D0D8799B
:10507000BCF1020F01441CBF187A01440EF1060076
:1050800089F80410494682B25046E6E60023BCF196
:10509000000F0CD04B44BCF1010F9879014406D0AD
:1050A000D879BCF1020F01441CBF187A014489F879
:1050B00004100EF1060250464946FDF73DFD40E65C
:1050C0002DE9F04182B040F2840CC2F2000CBCF831
:1050D0000270DCF804603F04B7610193019FF7B1EF
:1050E000002701E0009F01370097009F019DAF421C
:1050F0001CD2009F01370097009F019DAF4215D23F
:10510000009F01370097009F019DAF420ED2009F84
:1051100001370097009F019DAF42E3D306E000BF37
:1051200000BF00BF00BF00BFDCF80460BCF8007027
:1051300001304FF0000E00243F04B76100BF00BFF4
:1051400045B2BCF80260B5F1FF3FC8BF3604DCF8D9
:105150000480C8F818600193019E1EB3CDF800E0EA
:10516000009E019FBE4224D2009E01360096009E02
:10517000019FBE421DD2009D01350095009D019EFC
:10518000B54216D2009D01350095009D019EB542A5
:105190000FD2009D01350095009D019EB542E3D3DD
:1051A00007E000BF00BF00BF00BF00BF00BFDCF8CA
:1051B0000480BCF80060C8F818600193019F1FB319
:1051C000CDF800E0009F019DAF4226D2009D013541
:1051D0000095009D019FBD421FD2009D01350095A5
:1051E000009D019FBD4218D2009D01350095009D94
:1051F000019FBD4211D2009D01350095009D019F88
:10520000BD42E3D309E000BF00BF00BF00BF00BF45
:1052100000BFBCF80060DCF80480013435044000B5
:10522000082CC8F8185000BF7FF48AAFDCF80400DF
:10523000BCF8027087610193019FF7B1002701E07C
:10524000009F01370097009F019EB7421CD2009F2C
:1052500001370097009F019EB74215D2009F01378A
:105260000097009F019EB7420ED2009F0137009722
:10527000009F019EB742E3D306E000BF00BF00BF1E
:1052800000BF00BFDCF80400BCF800608661019339
:10529000019FF7B1002701E0009F01370097009FB1
:1052A000019DAF421ED2009F01370097009F019DD4
:1052B000AF4217D2009F01370097009F019DAF4278
:1052C00010D2009F01370097009F019DAF42E3D3AA
:1052D00008E000BF00BF00BF00BF00BFBCF8006017
:1052E000DCF804003704876101930198F8B10020CD
:1052F00002E000BF0098013000900098019FB84282
:105300001AD20098013000900098019FB84213D241
:105310000098013000900098019FB8420CD200988C
:10532000013000900098019FB842E3D304E000BF31
:1053300000BF00BF00BF00BF002A00F068814FF02F
:10534000000800BF00244FF0000E00BF0193019E33
:1053500026B3CDF80080009E019DAE4223D200BF4F
:10536000009E01360096009E019DAE421BD2009821
:10537000013000900098019DA84214D2009801309D
:1053800000900098019DA8420DD200980130009035
:105390000098019DA842E3D305E000BF00BF00BF15
:1053A00000BF00BF00BFDCF80450BCF80060AE6175
:1053B0000193019F27B3CDF80080009F0198874299
:1053C00027D200BF0098013000900098019FB8429A
:1053D0001FD20098013000900098019FB84218D267
:1053E0000098013000900098019FB84211D20098B7
:1053F000013000900098019FB842E3D309E000BF5C
:1054000000BF00BF00BF00BF00BFBCF80060DCF8F9
:1054100004502869BCF802703604AE61E51F04F13F
:10542000010418BF0125384018BF0120082C00BF17
:1054300040EA0E0000FA05FE7FF488AF013A01F859
:1054400001EB5FEA024E2FD0BCF80240DCF804000A
:10545000240484610193019C002C4FD0CDF800807E
:10546000009C019DAC4208D34FE000BF009C01347A
:105470000094009C019DAC4247D2009C01340094F2
:10548000009C019DAC4240D2009C01340094009CE1
:10549000019DAC4239D2009C01340094009C019DD6
:1054A000AC42E3D331E000BF01930198002800F043
:1054B0006D80CDF800800098019CA04208D36AE07E
:1054C0000098013000900098019CA04280F0638019
:1054D0000098013000900098019CA0425BD2009897
:1054E000013000900098019CA04254D200980130F5
:1054F00000900098019CA042E2D34CE000BF00BFA6
:1055000000BF00BF00BFDCF80400BCF800408461AD
:105510000193019D25B3CDF80080009D019EB54209
:1055200007D326E0009D01350095009D019EB54200
:105530001FD2009D01350095009D019EB54218D2F5
:10554000009D01350095009D019EB54211D2009D40
:1055500001350095009D019EB542E3D309E000BFEF
:1055600000BF00BF00BF00BF00BFBCF80040DCF8B8
:1055700004002404846100BFDCF80400BCF802408D
:105580008461BEF1000F7FF4DDAE40E000BF00BFDC
:1055900000BF00BF00BFDCF80400BCF8004084611D
:1055A0000193019D1DB3CDF80080009D019EB54281
:1055B00007D325E0009D01350095009D019EB54271
:1055C0001ED2009D01350095009D019EB54217D267
:1055D000009D01350095009D019EB54210D2009DB1
:1055E00001350095009D019EB542E3D308E000BF60
:1055F00000BF00BF00BF00BFBCF80040DCF80400E3
:105600002404846100BFBEF1000F7FF49BAEBCF8A0
:105610000210DCF804000904816101930199F1B1E1
:10562000002101E00099013100910099019A914215
:105630001CD20099013100910099019A914215D232
:105640000099013100910099019A91420ED200997E
:10565000013100910099019A9142E3D306E000BF25
:1056600000BF00BF00BF00BFDCF80400BCF80010A2
:10567000816101930199F1B1002101E000990131AB
:1056800000910099019A91421CD200990131009138
:105690000099019A914215D2009901310091009927
:1056A000019A91420ED20099013100910099019A1C
:1056B0009142E3D306E000BF00BF00BF00BF00BFC0
:1056C000DCF80400BCF802108161002002B0BDE8E3
:1056D000F08100002DE9F04782B040F2840CC2F264
:1056E000000CBCF80260DCF804703604BE61019363
:1056F000019EF6B1002601E0009E01360096009E54
:10570000019DAE421CD2009E01360096009E019D76
:10571000AE4215D2009E01360096009E019DAE421B
:105720000ED2009E01360096009E019DAE42E3D34C
:1057300006E000BF00BF00BF00BF00BFDCF8047080
:10574000BCF800604FF0000E00253604BE6100BFBB
:1057500044B2BCF80270B4F1FF3FC8BF3F04DCF8AC
:105760000480C8F818700193019F1FB3CDF800E0C2
:10577000009F019EB74224D2009E01360096009EF3
:10578000019FBE421DD2009C01340094009C019EEA
:10579000B44216D2009C01340094009C019EB44295
:1057A0000FD2009C01340094009C019EB442E3D3CC
:1057B00007E000BF00BF00BF00BF00BF00BFDCF8B4
:1057C0000480BCF800704000C8F818700193019E76
:1057D00026B3CDF800E0009E019CA64227D200BF70
:1057E000009C01340094009C019EB4421FD2009C96
:1057F00001340094009C019EB44218D2009C0134F4
:105800000094009C019EB44211D2009C013400948B
:10581000009C019EB442E3D309E000BF00BF00BF7B
:1058200000BF00BF00BFBCF80070DCF80480013589
:105830003C04082DC8F8184000BF7FF489AFDCF89D
:105840000440BCF80280C4F8188001930198F0B1BC
:10585000002001E00098013000900098019FB842BC
:105860001ED20098013000900098019FB84217D2D4
:105870000098013000900098019FB84210D2009823
:10588000013000900098019FB842E3D308E000BFC8
:1058900000BF00BF00BF00BFBCF80280DCF80440BE
:1058A000BCF80050A561D4F810E001930198F0B164
:1058B000002001E00098013000900098019EB04265
:1058C0001ED20098013000900098019EB04217D27D
:1058D0000098013000900098019EB04210D20098CC
:1058E000013000900098019EB042E3D308E000BF71
:1058F00000BF00BF00BF00BFBCF80050DCF8044090
:105900002804002AA06100BF00F0EB804FF00009DE
:1059100091F800A0013A00264FFA8AF7BCF802007D
:10592000B7F1FF3FC8BF0004DCF80470B861019311
:10593000019828B3CDF800900098019CA04208D3AC
:1059400025E000BF0098013000900098019CA04223
:105950001DD20098013000900098019CA04216D200
:105960000098013000900098019CA0420FD200984E
:10597000013000900098019CA042E3D307E000BFF3
:1059800000BF00BF00BF00BF00BFDCF80470BCF860
:1059900000004FEA4A0AB8610193019C24B3CDF894
:1059A0000090009C019DAC4207D326E0009C01348E
:1059B0000094009C019DAC421FD2009C01340094D5
:1059C000009C019DAC4218D2009C01340094009CC4
:1059D000019DAC4211D2009C01340094009C019DB9
:1059E000AC42E3D309E000BF00BF00BF00BF00BF6F
:1059F00000BFBCF80000DCF8047001360004082E7B
:105A0000B86100BF7FF488AFDCF80450BCF8020036
:105A1000A8610193019818B3CDF800900098019EF9
:105A2000B04224D20098013000900098019EB0420C
:105A30001DD20098013000900098019CA04216D21F
:105A40000098013000900098019CA0420FD200986D
:105A5000013000900098019CA042E3D307E000BF12
:105A600000BF00BF00BF00BF00BFDCF80450BCF89F
:105A700000000131A8610193019E1EB3CDF8009092
:105A8000009E019FBE4226D2009E01360096009ED7
:105A9000019FBE421FD2009C01340094009C019ED5
:105AA000B44218D2009C01340094009C019EB44280
:105AB00011D2009C01340094009C019EB442E3D3B7
:105AC00009E000BF00BF00BF00BF00BF00BFBCF8BF
:105AD0000000DCF804500004A861100400BF7FF44B
